:101800004AC07EC063C062C061C060C05FC05EC0CD
:101810005DC05CC05BC05AC059C058C057C056C0FC
:1018200055C054C053C0EC2DFD2DB7B6B0FCFDCF54
:1018300027BFE895B7B6B0FCFDCF21E1B7B6B6FC3F
:10184000F4CF0895040309041C03770077007700A0
:101850002E00660069007300630068006C002E00B3
:10186000640065000E0355005300420061007300E0
:10187000700012011001FF000008C016DC05020113
:101880000102000109021200010100803209040076
:1018900000000000000011241FBECFE5D4E0DEBF31
:1018A000CDBF10E0A0E6B0E0E2EFFFE102C005909E
:1018B0000D92A836B107D9F710E0A8E6B0E001C054
:1018C0001D92AD39B107E1F796D191C399CFA82FF9
:1018D000B92F80E090E041E050EA609530E009C027
:1018E0002D9182279795879510F084279527305E54
:1018F000C8F36F5FA8F30895EADF8D939D93089571
:10190000CF93CFB7CF93C395849BE9F7849B09C04E
:10191000849B07C0849B05C0849B03C0849B01C03B
:10192000A1C0DF93C0918000DD27C957DF4F849BA2
:1019300002C0DF91EBCF2F930F931F9300B32FEFD4
:1019400004FB20F94F933F9310B34FEF012704FBA3
:1019500021F93BE031C04E7F012F10B3216028C038
:10196000102F4D7F2260000000B329C04B7F246000
:10197000012F000010B32BC010B3477F28602AC08E
:101980004F7E00B320612CC04F7D10B320622FC06A
:101990004F7B00B3206432C0422700B349934FEF1E
:1019A0000000102714FB20F910B31471C9F1297F2E
:1019B00091F2012704FB21F900B3237F89F2315012
:1019C00058F1102714FB22F910B3277E79F2012772
:1019D00004FB23F92F7C81F200B3102714FB24F9B8
:1019E0002F7971F200C010B3012704FB25F92F7382
:1019F00059F200C000B3102714FB26F9223040F240
:101A000000C010B3012704FB27F9243028F64F77D4
:101A1000206810B30000F9CF10E41ABF002717C0E8
:101A20003B503195C31BD04010E41ABF0881033CE2
:101A3000E9F00B34D9F020917E001981110F1213B7
:101A4000EDCF093641F10D3211F0013E39F7009327
:101A500085003F914F911F910F912F91DF91CAB750
:101A6000C6FD51CFCF91CFBFCF9118952091850062
:101A7000222379F310918300112311F5343012F1F0
:101A80003093830020937F00109180003BE0311B56
:101A90003093800017C00091830001308CF40AE578
:101AA0003091600034FD10C000936000C3E7D0E0C7
:101AB0000FC02795A8F45150A9F4220F0000F9CFC8
:101AC0004AE503C042ED01C0432FC4E1D0E032E05B
:101AD00011B31461949A11BB02B320E414E15F9333
:101AE000012756E002BB279520F4515021F4220F24
:101AF000F9CF012756E000003B5A02BBD0F22795F0
:101B000028F4515029F4220F0000F9CF012756E0A4
:101B1000279502BB20F4515021F4220FF9CF012761
:101B200056E02991332302BB21F60B7E10918400ED
:101B3000110FC651D04002BB11F010937E0010E48B
:101B40001ABF006111B31B7E402F4B7E5F9100C016
:101B500000C002BB11BB42BB7CCFDC0113963C91A1
:101B60001397932F1496EC9114978E2F12962C9115
:101B70001297203331F4E370F0E0ED59FF4F80818C
:101B80000895283549F4332391F4E1E0F0E089E049
:101B90008093570084910895203591F4332349F5BB
:101BA000E0E0F0E089E080935700849108953830B8
:101BB000F1F4E3E0F0E089E0809357008491089528
:101BC000203229F4FC01EE0FFF1F84910895283282
:101BD00031F4FC01EE0FFF1F319684910895203AF5
:101BE00009F4F0C1203C29F415966C91F3D180E002
:101BF000089580E0089511BA88E082BB14BE81E0A8
:101C00008BBF82E08BBF8399D0C185B7826085BFCF
:101C10008BB780648BBF8C9A8FE795E8A9E08150E1
:101C20009040A040E1F700C000008C98789420918B
:101C30008300235027FD2DC180918000CCE0D0E0AF
:101C4000C81BD109C957DF4F80917F008D3209F041
:101C5000B7C0283009F01BC183EC809373008AE57C
:101C600080936000109268003881832F80762981EC
:101C70008823C9F18DE690E09093820080938100E3
:101C8000233031F4CE0169DF8093700024E08EC0F0
:101C9000253029F12A3019F1822F8450863098F4AA
:101CA0008A819B8190936A00809369002930C9F0F2
:101CB0002E8120936B008D81827080936C0037FDA4
:101CC00071C02FEF6FC0223021F4809161008E7FB0
:101CD00003C08091610081608093610002C021E0B7
:101CE00065C020E063C08A8110927C00222331F419
:101CF00010927D008CE790E022E04FC0253019F46F
:101D00008093840040C02630A9F59B81913019F45E
:101D100082E798E104C0923041F484E898E190931E
:101D200082008093810022E121C09330F1F4882366
:101D300041F484E498E1909382008093810024E050
:101D400015C0813041F488E498E19093820080933B
:101D500081002CE10BC0823041F484E698E190933D
:101D60008200809381002EE001C020E080E4809317
:101D700068001CC0283059F0293019F4809386007F
:101D800002C02A3039F08CE790E020E006C086E8F7
:101D900090E002C08CE790E021E090938200809375
:101DA000810004C080E88093680007C08F81882389
:101DB00021F48E81821708F4282F2093620067C0D7
:101DC0008091680087FF63C080916B00821708F4E0
:101DD000282F821B80936B0041E0811140E030E0AE
:101DE0004FC08091690090916A00A8E180309A0705
:101DF00008F04BC03E5FF894E0916900F0916A00F2
:101E00008991999151E00C0150935700E895112464
:101E100078948091690090916A00029690936A008C
:101E2000809369008F739070009741F0442341F1D3
:101E3000321730F180916C00882311F1F894E09111
:101E40006900F0916A00329783E080935700E8952B
:101E5000789407B600FCFDCFF894E0916900F0910A
:101E60006A00329785E080935700E895789407B62A
:101E700000FCFDCFF89481E180935700E8957894B9
:101E8000321708F4AECF442311F010926200109282
:101E900083008091600084FF64C0809162008F3F66
:101EA00009F45FC0182F893008F018E0811B809377
:101EB00062008091730098E8892780937300112352
:101EC00009F43EC08091680087FF1EC080916B00BE
:101ED000811708F4182F811B80936B00E091690033
:101EE000F0916A00812F90E08C589F4FA4E7B0E0FA
:101EF00003C024912D933196A817B907D1F7F09319
:101F00006A00E09369001AC0E0918100F0918200BC
:101F100086FF09C0812FA4E7B0E094919D9331968C
:101F20008150D9F707C0812FA4E7B0E091919D932C
:101F30008150E1F7F0938200E0938100193058F46A
:101F400084E790E0612FD8DC1C5F1C3041F08FEFFC
:101F50008093620004C08FEF809362001EE11093B3
:101F6000600084E190B3947131F48150D9F71092FC
:101F7000840010927E0080916100803130F0839B5C
:101F80000FC080916100805109C0839909C0809180
:101F90006100823028F0809161008250809361005E
:101FA00080916100882309F042CEF8948C9A12BA8D
:101FB0001BBE15BE81E08BBF1BBEE0917100F0918E
:101FC00072000995E199FECF9FBB8EBBE09A9927DD
:101FD0008DB30895262FE199FECF9FBB8EBB2DBBFD
:101FE0000FB6F894E29AE19A0FBE01960895F8941C
:021FF000FFCF21
:081FF2005AFEFF1E93070000D8
:0400000300001800E1
:00000001FF
